:020000040800F2
:1000000010070020010100086F180008670F0008A2
:100010006D180008FD0200087D1A000800000000AD
:10002000000000000000000000000000711800083F
:10003000FF020008000000008D010008751800088C
:100040001B0100081B0100081B0100081B01000820
:100050001B0100081B0100081B0100081B01000810
:100060001B0100081B0100081B0100081B01000800
:100070001B0100081B0100081B0100081B010008F0
:100080001B0100081B0100081B0100081B010008E0
:100090001B0100081B0100081B0100081B010008D0
:1000A0001B0100081B0100081B0100081B010008C0
:1000B0001B0100081B010008E91800081B010008CB
:1000C0001B0100081B0100081B0100081B010008A0
:1000D0001B0100081B0100081B0100081B01000890
:1000E0001B0100081B0100081B010008DFF80CD0F1
:1000F00000F0F2F800480047991F000810070020A0
:100100000648804706480047FEE7FEE7FEE7FEE7B1
:10011000FEE7FEE7FEE7FEE7FEE7FEE7E71800087A
:10012000ED00000872B62C482C49026841EA020131
:1001300001602B484FF0010101602A4841680160CD
:1001400001688A884FF0100342EA03028A80D1F8DE
:1001500000C00CF1240CBCE8FF008CF309884FF0C0
:10016000020C8CF31488AE4662B63047EFF3108071
:1001700072B67047EFF3108062B6704780F3108854
:10018000704719484FF0805101607047EFF3108CB1
:1001900072B6164A126822B12DE900509047BDE8A8
:1001A0000050EFF3098020E9F01F0E4D4FF01008CA
:1001B0002E683060B78827EA0807B780686828602B
:1001C000878847EA080787800168B1E8F01F81F354
:1001D00009888CF31088704720ED00E00000FFFFD5
:1001E0005C0000206000002004ED00E044000020DE
:1001F0002DE9F05F0546002092469B46884606465C
:10020000814640241BE0284641464746224600F0EE
:1002100020F853465A46C01A914110D31146184649
:10022000224600F04AF82D1A67EB01084F46224695
:100230000120002100F041F817EB00094E41201E7B
:10024000A4F10104DFDC484631462A464346BDE8B6
:10025000F09F202A04DB203A21FA02F000217047A7
:1002600021FA02F3D040C2F120029140084319461E
:10027000704740EA01039B0703D009E008C9121F39
:1002800008C0042AFAD203E011F8013B00F8013B50
:10029000521EF9D27047D2B201E000F8012B491E7C
:1002A000FBD270470022F6E710B513460A46044613
:1002B0001946FFF7F0FF204610BD202A04DB203A44
:1002C00000FA02F1002070479140C2F1200320FAA9
:1002D00003F3194390407047064C074D06E0E06871
:1002E00040F0010394E8070098471034AC42F6D37D
:1002F000FFF700FF6434000884340008FEE770470D
:10030000704700002DE9F84FDFF8B891002409F19B
:10031000040A0AF1040B23460F270BF1040EC9E06F
:100320000125A5402A40AA427DD1674ED1F804C0DC
:10033000ACEB0608B44532D014DCBCF1030F3AD064
:1003400009DCBCF1000F2AD0BCF1010F1CD0BCF1BC
:10035000020F31D11DE0BCF1110F17D0BCF1120F0B
:100360002AD119E0B8F5881F19D006DCB8F5803F0E
:1003700015D0B8F5801F1FD111E0B8F5001F0ED0C1
:10038000B8F5041F18D10AE0CB6815E0CB681B1D37
:1003900012E0CB6808330FE0CB680C330CE08B68BD
:1003A0002BB1012B4FF0080303D0456104E0042377
:1003B00002E0056100E00023FF2A01D8064601E0C3
:1003C00000F104064FEA840501D9A5F12005D6F80D
:1003D000008007FA05FC28EA0C0803FA05F548EA4C
:1003E0000508C6F800804D68ED0062D5374DAE694E
:1003F00046F00106AE61AD6924F0030605F0010583
:100400000095334D06EB050CDCF80850A607360FB7
:1004100007FA06F825EA0805DFF8B880404503D159
:100420004FF0000817E044E0DFF8AC80404502D10F
:100430004FF001080FE0DFF8A480404502D14FF0F3
:10044000020808E0DFF89880404502D14FF0030829
:1004500001E04FF0040808FA06F848EA0508CCF86D
:1004600008804D68D9F80060ED034D4601D516436C
:1004700000E096432E604D68DAF80060AD03554603
:1004800001D5164300E096432E604D68DBF800600E
:10049000ED025D4601D5164300E096432E604D689F
:1004A000DEF80060AD02754601D5164300E09643C4
:1004B0002E60641C0D682A46E5407FF431AFBDE82C
:1004C000F88F0000000401400000111000100240ED
:1004D0000000014000080140000C014000100140F4
:1004E00000140140C26821EA02030A4043EA0241C3
:1004F000016170470AB1016170470904FBE7000020
:1005000001488068704700000C00002002488168A4
:1005100002781144816070470C000020074810B534
:10052000016841F010010160032000F08FF8002005
:1005300000F006F800F03EF8002010BD0020024058
:1005400000B5014687B000221E2000F05FF81E2093
:1005500000F04EF81348C16941F00401C161C0695F
:1005600005A900F004000690684600F017F900F0B5
:1005700035F90D494000B0FBF1F10D480B4A491E19
:100580000260416040F2E7320021C0E9032181604E
:1005900000F00CFB10B1012007B000BD044800F0D2
:1005A00033FBF9E70010024040420F000008004012
:1005B0002C0100200C4808B5816941F001018161DE
:1005C000816901F001010091C16941F08051C1616F
:1005D000C06900F0805000900448416821F0E0615B
:1005E00041F00071416008BD001002400000014070
:1005F000002809DB00F01F02012191404009800022
:1006000000F1E020C0F8001170470000F0B40E4B7C
:100610001B680C46C3F30223C3F10705042D00D960
:100620000425191D072901D2002300E0DB1E012645
:1006300006FA05F1491E214099409E40761E16405B
:100640003143F0BC01F02CBA0CED00E0064900F09B
:10065000070208684FF6FF03184040EA0220034AE9
:1006600010430860704700000CED00E00000FA0540
:100670002DE9F0470F46050061D0434E306800F089
:100680000700B84209D2306820F0070038433060D4
:10069000306800F00700B84251D128683B4C810710
:1006A00012D5400703D5606840F4E06060602878A8
:1006B000000703D5606840F4605060606068A96816
:1006C00020F0F000084360602878C00728D06868F0
:1006D000012810D02168022810D0890700292EDABD
:1006E000616821F0030101436160FFF709FF804663
:1006F00041F288390DE021688903EFE78901EDE7D0
:10070000FFF7FEFEA0EB0801494502D90320BDE832
:10071000F0876068696800F00C00B0EB810FEFD1E2
:10072000306800F00700B8420BD9306820F00700AD
:1007300038433060306800F00700B84201D0012033
:10074000E5E72878400705D56068E96820F4E060AF
:10075000084360602878000706D56068296920F49E
:10076000605040EAC100606000F058F86168084AD3
:10077000C1F30311515CC84006490860064800688F
:10078000FFF7DEFE0020C2E700200240001002401A
:100790004C34000818000020100000200F220260D6
:1007A0000C4A536803F003034360536803F0F003FB
:1007B0008360536803F4E063C36052684FF4E063FE
:1007C00003EAD20202610448006800F007000860F2
:1007D0007047000000100240002002400448054914
:1007E00000684968044AC1F30221515CC84070475F
:1007F00018000020001002405C340008044805493D
:1008000000684968044AC1F3C221515CC84070477E
:1008100018000020001002405C34000812A185B0CE
:100820000FC98DE80F0014A0144A006804905168A5
:10083000134801F00C03042B10D0082B0ED1C1F388
:100840008343C9031DF803000AD5516804AAC1F304
:100850004041515C0A4A5043B0FBF1F005B070478B
:1008600008494843FAE7000002030405060708099F
:100870000A0B0C0D0E0F10100102000000100240B8
:1008800000127A0000093D002DE9F84F040070D0F5
:100890002078C04DC00749D06868C0F381000128A6
:1008A00007D06868C0F38100022809D16868C003D6
:1008B00006D52868800339D560680028E7D035E080
:1008C0006068B0F5803F0BD010B1B0F5A02F11D00B
:1008D000286820F480302860286820F4802002E016
:1008E000286840F480302860606890B1FFF708FE07
:1008F00006460AE0286840F480202860F0E700BF40
:10090000FFF7FEFD801B642873D828688003F7D5A5
:100910000CE0FFF7F5FD064605E000BFFFF7F0FD30
:10092000801B6428F0D828688003F7D420789A4E7A
:1009300080074FF001094FF0000839D5686810F0C2
:100940000C0F07D06868C0F38100022809D16868DD
:10095000C00306D42868800714D52069012808D16F
:1009600010E02069B0B1C6F80090FFF7C9FD074656
:1009700005E00AE1FFF7C4FDC01B0228C4D82868BF
:100980008007F7D52868616920F0F80040EAC100C7
:1009900028600DE0C6F80080FFF7B2FD074604E0CE
:1009A000FFF7AEFDC01B022823D828688007F7D4C4
:1009B000207800072CD57948A169D9B1C0F80090FA
:1009C000FFF79EFD074604E0FFF79AFDC01B0228D3
:1009D0000FD8686A8007F7D571484FF4FA5100685C
:1009E000B0FBF1F0009000BF0098411E0091FAD2D8
:1009F0000EE080E0C0F80080FFF782FD074604E0CB
:100A0000FFF77EFDC01B022875D8686A8007F7D4FF
:100A10002078400760D5E8690027C00008D4E8695D
:100A200040F08050E861E869012700F080500090B4
:100A30005C480168C90513D40168834641F480719C
:100A40000160FFF75DFD824606E000BFFFF758FD3D
:100A5000A0EB0A0064284ED8DBF80000C005F5D5ED
:100A6000E06801280AD008B1052813D0286A20F0D0
:100A700001002862286A20F0040002E0286A40F0A1
:100A800001002862E06841F2883B98B1FFF738FD29
:100A900082460BE0286A40F004002862EEE700BFBF
:100AA000FFF72EFDA0EB0A0159455AD8286A8007A6
:100AB000F6D50CE0FFF724FD824605E0FFF720FDA8
:100AC000A0EB0A0159454CD8286A8007F6D41FB11B
:100AD000E86920F08050E861E06988B36968C1F393
:100AE0008101022944D00228C6F8608004D0FFF7B3
:100AF00007FD044638E034E0FFF702FD074604E056
:100B0000FFF7FEFCC01B02282BD828688001F7D411
:100B1000206AB0F5803F05D16868A16820F40030F4
:100B200008436860D4E908010843696821F4741136
:100B300008436860C6F86090FFF7E2FC044606E0F0
:100B400025E000BFFFF7DCFC001B022809D828685D
:100B50008001F7D51BE000BFFFF7D2FC001B022885
:100B600002D90320BDE8F88F28688001F4D40EE094
:100B70000128F7D06868226A00F48031914204D1DC
:100B8000616A00F47010884201D00120EAE7002079
:100B9000E8E70000001002400000424280044242A8
:100BA00018000020007000407047704710B5040026
:100BB00003D094F83D0010B107E0012010BD0020E3
:100BC00084F83C00204600F01EF8022084F83D0026
:100BD000211D206800F08EFE012084F8460084F874
:100BE0003E0084F83F0084F8400084F8410084F817
:100BF000420084F8430084F8440084F8450084F8F7
:100C00003D00002010BD704790F83D10012901D033
:100C100001207047022180F83D100168CA6842F047
:100C20000102CA6000680B49884208D0B0F1804FC9
:100C300005D00949884202D00849884204D1816818
:100C400001F00701062903D0016841F001010160AC
:100C500000207047002C01400004004000080040C4
:100C6000704770B50446006801694FF00005C9433C
:100C7000890715D4C168C943890711D4E91E0161E8
:100C800001202077206880698007204602D0FFF786
:100C9000E7FF04E000F098F8204600F096F825778A
:100CA00020680169C943490717D4C168C943490786
:100CB00013D46FF00401016102202077206880695D
:100CC00010F4407F204602D0FFF7CAFF04E000F096
:100CD0007BF8204600F079F8257720680169C94340
:100CE000090716D4C168C943090712D46FF0080177
:100CF0000161042020772068C0698007204602D067
:100D0000FFF7AEFF04E000F05FF8204600F05DF86A
:100D1000257720680169C943C90617D4C168C9434A
:100D2000C90613D46FF010010161082020772068F4
:100D3000C06910F4407F204602D0FFF791FF04E025
:100D400000F042F8204600F040F82577206801695D
:100D5000C943C90708D1C168C943C90704D1891E5D
:100D60000161204600F032F820680169C943090694
:100D700009D4C168C943090605D46FF08001016137
:100D80002046FFF711FF20680169C943490609D4CD
:100D9000C168C943490605D46FF04001016120468E
:100DA00000F01EF820680169C94389060BD4C168A8
:100DB000C943890607D46FF0200101612046BDE8D0
:100DC0007040FFF7F2BE70BD70477047006803497E
:100DD000884201D1FFF79ABB70470000000800402D
:100DE000704770B5040004D094F83900002510B1A4
:100DF00006E0012070BD84F83850204600F022F84B
:100E0000242084F839002068C16821F40051C160B1
:100E1000204600F0A5FD2068016921F490410161A0
:100E20002068416921F02A0141612068C16841F4CC
:100E30000051C160E563202084F8390084F83A004D
:100E4000002070BD30B585B0002400940194029458
:100E5000039400681449884224D11448816941F4FC
:100E600080418161816901F480410491816941F08F
:100E70000401816180690E4D00F0040004904FF47C
:100E800000700090022001900320039069462846DC
:100E9000FFF738FA2815CDE9000469462846029480
:100EA000FFF730FA05B030BD0038014000100240B5
:100EB000000801402DE9F843044690F839001F4628
:100EC00016460D4620284CD1C5B1BEB194F8380065
:100ED000012846D0012084F838004FF00008C4F8FB
:100EE0003C80212084F83900FFF70AFBA684814664
:100EF000E684A068B0F5805F03D004E00120BDE87F
:100F0000F883206928B12E465FF0000584F8388008
:100F10000EE00026FAE78021204600F07DFDA0B912
:100F2000AEB116F8010B21684860E08C401EE084E9
:100F3000E08C4B464FF0000200970028EBD14FF0B9
:100F40004001204600F068FD30B10320D7E735F8B6
:100F5000020BC0F30800E6E7202084F839000020E7
:100F6000CDE70220CBE7FEE74218491E521E82421F
:100F700002D922EA010070478843704710B5204922
:100F80001020086020491F48086001F09FFA040003
:100F900007D01EA000F074FD21461EA000F070FDD9
:100FA00025E001F0B5FF040004D018A000F068FDB2
:100FB0001FA01AE002F016F801F0ACFC002817D1CF
:100FC00001F08EFA002813D101F08CFB040004D04C
:100FD0000EA000F055FD1BA007E001F0A9FD0400E4
:100FE00007D00AA000F04CFD1BA000F049FD2046F0
:100FF00010BD02F0CDF9BDE8104001F043BA000089
:101000005000002010070020E40000205B455252F1
:101010005D2000006F734D656D53797374656D4984
:101020006E6974206572726F722025640A00000078
:101030006F735461736B496E6974206572726F725D
:101040000A0000006F735175657565496E697420FB
:101050006572726F720A00006F735377546D724934
:101060006E6974206572726F720A00004268C1E98D
:10107000000242681160416070474268C1E90002A5
:1010800042681160416070474268C1E900024268ED
:101090001160416070474268C1E900024268116016
:1010A00041607047D0E900121160D0E900124A6037
:1010B00000214160016070470068FFF7D7BF70B53D
:1010C00005000C464FF000000CD0002C0AD028463A
:1010D00001F0A3FC002805D121462846BDE8704058
:1010E00001F050B870BD01F0DDB870B50C460500D8
:1010F0000AD04CB101F0C2FC012807D02146284695
:1011000001F0EEF8012801D0012070BD002070BD73
:101110002DE9F84FDFF898A00F460500DAF80040F7
:10112000A04603D0502F01D9A80702D00120BDE866
:10113000F88FFFF71BF88146EE1918E0A068A5426A
:10114000204401D8A64203D885420ED286420CD351
:1011500018A000F095FCA068324620440090234679
:10116000294616A000F08CFC1BE0A046E468002C89
:10117000E4D13946284601F037F990B1B7F5805FE0
:1011800003D3284601F0AAFC58B1DAF8001061B187
:10119000C8F80C500020E8604846FEF7EFFF00203A
:1011A000C5E74846FEF7EAFFC0E7CAF80050F1E796
:1011B000E00000205B4552525D200000706F6F6CB4
:1011C000205B25702C20307825782920636F6E668F
:1011D0006C696374207769746820706F6F6C205B32
:1011E00025702C2030782578290A00002DE9F04759
:1011F0000D4608985FEA020900F104018FB206D09B
:101200004FF6FB71884205D92648BDE8F08725488E
:101210000930FAE7E5B1D8B1DFF88C8005FB07F1BA
:10122000D8F80000FFF74BFF060014D0FEF79EFF32
:101230001E4A01465068904210D10846FEF79EFFB4
:101240003146D8F80000FFF750FF1648401CDCE795
:1012500014480A30D9E71348401ED6E7D0E90023E6
:10126000A0F11C041A60D0E900235360E5802781B7
:10127000012326600022A38022826582A281E2816E
:10128000A0F10802526012604060006008304060C7
:1012900000600846FEF772FF61890020C9F800105F
:1012A000B3E7000003060002E4000020BC000020B9
:1012B000F8B51C4615460E46074601F0F5FA00281B
:1012C00006D100212B4632463846009401F038FA08
:1012D000F8BD7FB582B01C460D46064604AA01F053
:1012E000FDFA002806D1032104AB2A4630460094BB
:1012F00001F026FA06B070BD10B5FEF737FF0446C0
:1013000001F07AF90A49283848600968814202D018
:101310000848008820B12046BDE81040FEF72EBFE7
:101320002046FEF72BFFBDE81040FEF72ABF000065
:10133000600000204000002010B501F0BBFF040059
:1013400006D005A000F09CFB05A000F099FB01E091
:10135000FEF7E8FE204610BD5B4552525D200000BE
:101360006F735469636B5374617274206572726F2A
:10137000720A000070B5044600F034F8002829D144
:10138000174D2068C0EBC000E96800EB400001EB9E
:101390008004FEF7EBFE0646A08820F0020040F035
:1013A0000400A080E18804F1280001F0E1F801F0D8
:1013B00023F905F1200128384860EA695AB12A88E2
:1013C0004AB90968814206D03046FEF7D7FE01F0DF
:1013D0009FFA002070BD3046FEF7D0FEF9E700000E
:1013E000400000202DE9F0470D465FEA00084FF06D
:1013F000FF3A16D0C5B12869C8B12968D1B1AA8809
:1014000046481F2A0BD802D1454A914207D1454987
:10141000454AE868511A88420FD940481D30BDE856
:10142000F0873E48001DFAE73C48801EF7E73B483E
:10143000801CF4E73948401CF1E710B94FF43470D0
:10144000E8600821FFF790FDE860B0F5987F02D2D0
:101450003248C01CE3E7FEF789FE06464FF000095C
:10146000324C10E0A1F128070846FFF71BFE2F4879
:1014700007F128010838FFF7F9FD2A48F968FFF756
:1014800034FEC7F80C906168A142EBD127490839B6
:101490004868884202D1214C0E3439E0A0F128047A
:1014A000FFF700FE3046FEF769FE276908221D4857
:1014B000E968FFF718FE060020D002463846E968C2
:1014C00001F06EFF2060A868E6602062E868C4F85A
:1014D0001890C4F81C900221A060A180A988E18026
:1014E0002968C4F83CA0C4F8489061612969C4F82F
:1014F000509061620020C8F8007090E7FEF736FE59
:1015000006460A4804F128010838FFF7AFFD084CE9
:101510003046FEF733FE204681E70000030200025A
:1015200081240008100700200050002078000020CF
:101530000002000370B5054600F0C4FF08B115486D
:1015400070BD1548008808B1144870BDEDB1FEF7B4
:101550000DFE114C064620342068283000F0ECFFC8
:101560002068818821F0040181802946206801F0EB
:1015700075FC2068818841F0200181803046FEF7AB
:10158000FDFDFFF7B9FE002070BDBDE8704000F022
:10159000A3B800000D020003400000200E0200026C
:1015A0002DE9F047494D07464FF0FF3A68698742F9
:1015B00002D14748BDE8F087A869874202D1444874
:1015C0000D30F7E72869874202D341480D38F1E72B
:1015D000FEF7CCFD8046C7EBC700E96800EB400092
:1015E00001EB8004A688F00706D0394C40460A3C3F
:1015F000FEF7C4FD2046DDE7F0064FF0000903D5F5
:10160000288808B1A5F80090700708D504F12800D3
:1016100000F092FFA08820F00400A08007E042F2D2
:101620000800064203D004F12800FFF73BFD16F046
:10163000600F02D0204601F075FEA08820F0020065
:1016400040F00100A080C4F83CA0C4F8489000F02D
:10165000D3FF1E4E4FF0010A2036283870602079E3
:10166000C0061FD504F1280106F11800FFF724FD7C
:101670002869E968C0EBC00000EB400001EB800086
:10168000306007613168A08888803068E168C16097
:10169000616A4162A4F804A04046FEF76FFD01F0C4
:1016A00037F910E00948A4F804A004F1280130300B
:1016B000FFF7DCFC0748E168FFF717FD4046C4F878
:1016C0000C90FEF75BFD002074E700004000002056
:1016D000140200021007002070B5194CA4F120027A
:1016E000206812690169914201D3164870BD0079E2
:1016F000400701D4002070BDFEF738FD0546206884
:10170000C08800F067FF012813D920682830FFF750
:10171000C9FC2068818841F0040181802068C1886B
:10172000283000F025FF2846FEF728FDFFF7E4FDEE
:10173000E0E72846FEF722FD0248093070BD0000B0
:1017400060000020070200020149D1E90001704752
:10175000980000202DE9F04385B000243048009423
:10176000019402940394816941F0100181618169BF
:1017700001F010010491816941F0200181618169CA
:1017800001F020010491816941F0040181618169C6
:1017900001F004010491816941F0080181618069CF
:1017A000DFF8808000F008004FF48077049000227A
:1017B00039464046FEF79EFEDFF86C900022042179
:1017C0004846FEF797FE4FF6FF760325CDE9006504
:1017D00069461648FEF796FD49F6FF00CDE900057B
:1017E00069464046FEF78EFDCDE900656946104822
:1017F000FEF788FD0226012500970396CDE90154E6
:1018000069464046FEF77EFD0420CDE90005CDE99E
:10181000024669464846FEF775FD05B0BDE8F0830F
:101820000010024000080140001401400010014077
:10183000000C01400C4810B50A4901604FF4E13139
:101840004160002181600C22C160C0E90412816105
:10185000C161FFF7C6FA002803D0BDE81040FEF7CB
:101860004FBD10BD00380140EC000020FEE770477E
:10187000704700000648006808B101F007BD054840
:10188000D0E90012491C42F10002C0E90012704781
:10189000880000209800002030B58FB028216846CD
:1018A000FEF700FD14210AA8FEF7FCFC0121080444
:1018B000CDE900100024029402250491CDE90750DF
:1018C0004FF4E01009906846FEF7DEFF0F20CDE9E7
:1018D0000A056802CDE90C4002210AA80E94FEF721
:1018E000C7FE0FB030BD70470148FFF7BAB900001E
:1018F0002C010020F0B50268164B174C174D4FF025
:101900008047984205D0B84203D0A04201D0A842F7
:1019100003D122F070064A683243984205D0B8429B
:1019200003D0A04201D0A84203D122F44074CA6877
:1019300022434C6922F08002224302608A68C2621C
:101940000A688262984201D10969016301214161FB
:10195000F0BD0000002C01400004004000080040E1
:1019600070B5044600680169E26821F440511143F2
:1019700001612169A0680843616908432168CA6858
:1019800041F20C639A430243CA6020684169A2692C
:1019900021F44071114341611E492068884202D1FF
:1019A000FEF72CFF01E0FEF719FF00EBC00101EB91
:1019B0000012606864218000B2FBF0F3B3FBF1F326
:1019C0006FF018067343B2FBF0F5B2FBF0F605EBCF
:1019D0008305322303EB0515B5FBF1F5B6FBF1F6F4
:1019E00005F0F00505EB0615B2FBF0F6B2FBF0F0E2
:1019F000B0FBF1F06FF01802504306EB800003EBF0
:101A00000010B0FBF1F0216800F00F00284488605E
:101A100070BD0000003801402DE9F041984617469E
:101A20000E460446069D1DE0681C1BD02DB1FEF736
:101A300067FDA0EB0800A84214D92068C16821F412
:101A4000D071C1602068416921F00101416120200D
:101A500084F8390084F83A00002084F83800032024
:101A6000BDE8F0812068006836EA000004D000205C
:101A7000B842D9D00020F3E70120F9E7FEE70000E3
:101A80000FB4054B10B503A9044A029800F028F8DA
:101A900010BC5DF814FB0000451F0008E8000020A2
:101AA0000907090E002804DB00F1E02080F800148B
:101AB000704700F00F0000F1E02080F8141D70471F
:101AC00002E008C8121F08C1002AFAD17047704707
:101AD000002001E001C1121F002AFBD17047000065
:101AE0002DE9FF4F8DB00F460546002606E025285C
:101AF0000BD0DDE90F1290476D1C761C287800286A
:101B0000F5D111B03046BDE8F08F0024A246A146C1
:101B10000122EC4900E0044315F8013F203B02FAA2
:101B200003F00842F7D128782A2810D06FF02F024E
:101B30002878A0F13001092914D80AEB8A0102EBB8
:101B4000410144F0020400EB010A6D1CF0E701CFF3
:101B50005FEA000A03D544F40054CAF1000A44F0D5
:101B600002046D1C28782E2817D115F8010F44F0B7
:101B700004042A280ED06FF02F022878A0F130013B
:101B800009290AD809EB890102EB410100EB01099F
:101B90006D1CF2E757F8049B6D1C28786C280FD059
:101BA00006DC4C2817D068280DD06A2814D104E030
:101BB000742810D07A280FD10DE044F400140AE004
:101BC00044F4801401E044F440146978814202D165
:101BD00004F580146D1C6D1C2A786E2A1FD00CDC55
:101BE000632A31D004DC002A8BD0582A11D1A3E01B
:101BF000642A68D0692A0CD165E0732A2ED004DCEF
:101C00006F2A73D0702A04D19BE0752A6FD0782A8E
:101C10006ED01046DDE90F129047761C50E1C4F3F8
:101C20000250022806D0032809D0042801CF09D089
:101C3000066045E101CFF117C0E9006140E101CF45
:101C400006803DE106703BE117F8040B8DF80000BB
:101C500000208DF80100EB46012003E057F804BB9B
:101C60004FF0FF3061074FF0000102D40DE008F1A2
:101C70000101884649450FDA8045F8DB1BF808105A
:101C80000029F4D108E008F1010188468142FADB1D
:101C90001BF808100029F6D1DDE90F23AAEB080094
:101CA0008146214600F036F9304400EB080604E096
:101CB000DDE90F121BF8010B9047B8F10108F7D2CC
:101CC00021464846F7E00A21C4F302534FF0000BC7
:101CD0000891022B04D001CFC117032B09D00AE0D1
:101CE000FF1D27F00707F7E8020108E032E01FE0D8
:101CF00020E000B2C117042B01D140B2C117031E6E
:101D000071F1000307DA4FF0000CD0EB0C006CEB24
:101D100001012D2302E0230504D52B238DF8243067
:101D2000012303E0E30701D02023F7E7984658E0BA
:101D30000A2110E010210EE010204FF0000B089057
:101D40000CE010214FF0000B44F004044FF00809A0
:101D5000089103E008214FF0000B0891C4F30253EF
:101D6000022B04D001CF0021032B06D006E0FF1D7B
:101D700027F00707F7E8020103E080B2042B00D147
:101D8000C0B24FF0000823072BD5702A07D0DDF82A
:101D900020C08CF0100C5CEA0B0C05D00EE0402348
:101DA0008DF82430012308E050EA010306D03023E7
:101DB0008DF824308DF8252002239846DDF820C0C8
:101DC0008CF0080C5CEA0B0C0BD150EA010301D13A
:101DD000630706D530238DF824304FF00108A9F1B0
:101DE0000109582A04D038A20B9208AA0A920BE0E3
:101DF0003AA2F9E75B46089AFEF7FAF90B9B9B5C5F
:101E00000A9A521E0A92137050EA0102F2D10A98FD
:101E1000ADEB000000F1200B600702D524F4803404
:101E200001E04FF00109D94502DDA9EB0B0000E00C
:101E3000002000EB0B0141440890AAEB010AE003EB
:101E400006D4DDE90F232146504600F063F806442E
:101E50004FF0000908E009A911F80900DDE90F12A7
:101E6000904709F10109761CC145F4DBE0030CD56C
:101E7000DDE90F232146504600F04CF8064404E00B
:101E8000DDE90F1230209047761C0899481E089013
:101E90000029F5DC08E00A980A990078491C0A91A3
:101EA000DDE90F129047761CBBF10001ABF1010B8D
:101EB000F1DC21465046DDE90F2300F019F8064415
:101EC0006D1C1BE6092801003031323334353637BA
:101ED0003839616263646566000000003031323376
:101EE0003435363738394142434445460000000016
:101EF0002DE9F041044600251E461746880404D407
:101F000005E039462020B0476D1C641EF9D52846EF
:101F1000BDE8F0812DE9F041044600251E469046BB
:101F2000C80301D5302700E02027880404D505E048
:101F300041463846B0476D1C641EF9D52846BDE8B9
:101F4000F0810000044909680A68D2431206FBD4F4
:101F5000C2B24A6070470000EC000020064D4FF40A
:101F600080744FF47A7621462846FEF7BBFA304655
:101F7000FFF7E0FAF7E7000000080140054C4FF4D6
:101F8000967504212046FEF7ADFA2846FFF7D2FAEF
:101F9000F7E700000014014086B0FEF7BFFAFFF734
:101FA0007BFCFFF7D7FBFFF745FCFEF7E7FF1FA021
:101FB000049021484FF40075042400900395ADF877
:101FC000044069461D48FFF7D5F928B11CA0FFF76A
:101FD00057FD1DA0FFF754FD22A004902448009057
:101FE00016480395ADF804406946001DFFF7C2F995
:101FF00028B113A0FFF744FD1EA0FFF741FD24A068
:102000000490264800900D480395ADF804406946B9
:102010000830FFF7AFF928B109A0FFF731FD20A084
:10202000FFF72EFDFFF788F9FEE700006C656431CD
:102030005F7461736B0000005D1F000800000020EA
:102040005B4552525D200000637265617465206CCF
:10205000656431207461736B206661696C6564210D
:102060000D0A00006C6564325F7461736B000000E0
:102070007D1F0008637265617465206C65643220A1
:102080007461736B206661696C6564210D0A0000E0
:102090007072696E745F7461736B000021340008A4
:1020A000637265617465207072696E742074617307
:1020B0006B206661696C6564210D0A0010B586B0FD
:1020C000044614216846FEF7EDF86946204600F004
:1020D000B3F906B010BD4A0900EB82020068121D78
:1020E000884206D901F01F030121106899408843F6
:1020F0001060704730B502C81F314B0900210A46F5
:1021000014E00468641C0FD00468E34301E05B083A
:10211000491C002BFBD14B1E01259D402C43046024
:1021200001EB4210401E30BD001D521C9A42E8D304
:102130004FF0FF3030BD02688A4201D8002070475E
:102140004A0900EB820001F01F0240680121914022
:102150000840F4D00120704770B5054601600C4678
:1021600001F11F00C108281DFEF79CF8E00608D009
:1021700004F01F014FF0FF308840610905EB810139
:10218000486070BD2DE9F04100240D462746061E2B
:102190005ED0FDF7EBFF8046ED1C25F0030570686F
:1021A00010E041684A000CD421F04041A94208D314
:1021B00024B1626822F040428A4202D90446A94210
:1021C00021D000680028ECD1ECB3606820F04040DA
:1021D000401B082817D9621952F80C0F20F08040D4
:1021E00042F804096168491B083961F31D00C2E91E
:1021F00000402146304600F014F928B302606068C0
:1022000065F31D00606054F8040F20F0004040F0BA
:10221000804001C414482746816829440831816000
:10222000C268914200D9C1600168491C01607068B0
:10223000406820F04040B0F5806F02D23046FFF792
:102240003DFF404601E005E00CE0FDF797FF384612
:10225000BDE8F08105A0FFF713FC294605A0FFF7B4
:102260000FFCE4E77260CAE7D00000205B455252E1
:102270005D20000074686572652773206E6F74209E
:10228000656E6F7567682077686F6C6520746F2066
:10229000616C6C6F63202578204279746573210A24
:1022A0000000000070B5144628B121B1042C02D3FF
:1022B000651E2C4201D0002070BD2144091FFFF78C
:1022C00061FF0028F8D00119491EA9438842F3D0C4
:1022D000081A40F0004041F8040C084670BD0000A8
:1022E0002DE9F04101260C46050018D0BCB154F888
:1022F000040C002802DA20F000400C1A2868A042E2
:1023000003D868680830A0420BD22FA0FFF7B8FBB3
:1023100021462FA0FFF7B4FB0020BDE8F08101208B
:10232000FBE7FDF723FFA4F10802074650684000D1
:102330000ED5286890420DD01168814208D3686894
:102340000830814204D8284600F06BF8904201D052
:10235000002634E05068234B20F08040506020F08D
:102360004040996800F108048C4204D8081A0838E3
:10237000986000E00246106880B141684900F9D5D4
:102380000CE054684FEAB47404EB810120314FEA49
:10239000B10151606968814200D16A6011462846E6
:1023A00000F03FF810B141684C00EAD511462846CC
:1023B00000F037F800B102605868401C5860384699
:1023C000FDF7DCFE3046A8E75B4552525D20000079
:1023D00030782578206F7574206F662072616E6783
:1023E00065210A00D000002070B50E4604460500A5
:1023F00001D0582E01D8002070BD2046FDF752FFB5
:1024000050342C60C5E901466068583E20F0804099
:10241000606000202060606866F31D00606001203D
:1024200070BD4068884201D100207047486820F0A4
:10243000404008440830704730B5002278B171B18F
:10244000436807E05C68650003D524F040442244FB
:1024500008321B68002BF5D18368934201D201201A
:1024600030BD4A6080680860801A8860034802684E
:10247000CA6040680861002030BD0000D000002024
:10248000FEE7000000B587B018216846FDF70AFF97
:10249000074800904FF4A060039006A004901F200E
:1024A000ADF8040069460648FEF764FF07B000BDBA
:1024B0008124000849646C65436F726530303000D8
:1024C00054000020EFF305807047000002480349E4
:1024D000091AFEF71DBE0000100700200050002062
:1024E0002DE9F04111484FF4B4714060006010488C
:1024F0000068FEF7E4FD0D4D2D1F286098B1002403
:1025000026462F1D296804EB440001EBC0014C60F6
:1025100001F8086B3868FEF7B0FD641C0F2CF1D38E
:102520000020BDE8F0810348FBE70000B000002078
:10253000E4000020001D0002D0E900121160D0E983
:1025400000124A6000214160016030F8221C0748F7
:10255000426802EBC1025368934205D14FF000423A
:10256000CA40016891430160704700001C000020D0
:102570000A4B10B55A6802EBC1025468944205D167
:102580004FF00044CC4019680C431C6011684A6845
:10259000C0E900124A681060486010BD1C000020AD
:1025A00010B50A4800244FF480710068FEF787FDDB
:1025B00007490028486007D0486800EBC400641C45
:1025C00040600060202CF7D310BD0000E400002024
:1025D0001C0000200749034600204A6802EBC301A3
:1025E00002EBC302496801E04968401C8A42FBD102
:1025F000704700001C0000200548016831B14068A8
:10260000B1FA81F100EBC1004068704700207047CB
:102610001C0000202DE9F0411E460446134611F02F
:1026200003004FF000050BD0012812D0032817D06B
:1026300022A0FFF725FABDE8F04122A0FFF720BA5B
:10264000A089E788421CBA4201D1A58110E0A2818D
:102650000EE0A08900B9E088401EA08180B207E0AA
:10266000E089E788421CBA4201D1E58100E0E281BD
:102670002289256800FB025548074FEAC17007D53B
:1026800018B118682860BDE8F08128681860FAE77A
:1026900050B1194628463268FDF7EBFD20892D1F01
:1026A000284431680160EEE7281F10442946046879
:1026B00018462246FDF7DDFD3460E4E75B455252E3
:1026C0005D200000696E76616C69642071756575C6
:1026D00065206F7065726174652074797065210A78
:1026E0000000000070B513484FF4DC742146006808
:1026F000FEF7E5FC104D2860D0B12146FDF7D2FD74
:10270000281D0024406000604FEA000604EB4400EE
:10271000296800EBC40001EB80014C811C3130685A
:10272000FEF7B2FC641CA4B20A2CEFD3002070BDEB
:10273000024870BDE4000020B8000020010600023D
:102740002DE9FF5F9A460F460446002501F0010679
:10275000DDF838B0FDF70AFD4F49814604EB44002F
:10276000096800EBC40001EB8004A08850B1F807B1
:102770002089DAF80010A0F1040006D0814209D9BE
:10278000464D83E0454D0B3D80E0814202D2434DF2
:102790000A357BE004EB4600018A91B1491E0182B3
:1027A000534639462046029AFFF734FF002E37D0B1
:1027B0004FF0000004EBC000816934D14FF00100FC
:1027C00032E0BBF1000F05D03548008850B1334DE1
:1027D0000F3D5BE0F80702D0304D6D1C56E02F4DE9
:1027E000083553E02F485A464FF40051D0F8008086
:1027F00004EBC600143000F003FD4846FDF7BEFCB4
:10280000FEF77AFDFDF7B2FC8146B8F804004106F8
:10281000C6D5224D20F04001A8F804100E3D35E049
:102820004FF00100C6E7002004EBC00014308142E5
:1028300015D096B15FF0000004EBC0004FF40051DA
:102840008069283800F002FD4846FDF797FCFEF746
:1028500053FD002004B0BDE8F09F0120ECE7002EFE
:102860000CD000BF4FF0000004EB4000008A00F1E4
:10287000010080B205D14FF0010104E04FF00100EA
:10288000F2E74FF0000104EB410108824846FDF7F2
:1028900075FC2846DEE70000B8000020150600029F
:1028A000400000206000002010B50A2801D30A482B
:1028B00010BD49B142B1106848B15BB1FFF702FEEB
:1028C00040B105480A3010BD0348401C10BD024805
:1028D000801C10BD002010BD0E06000210B50A2895
:1028E00001D30A4810BD41B1106848B15BB1FFF790
:1028F000E9FD40B10548401F10BD0448001D10BD52
:102900000248401D10BD002010BD00000E06000250
:10291000FDF737BC2DE9F04110484FF4A07140603D
:1029200000600F480068FEF7CAFB0C4D2D1F2860A1
:1029300090B1002426462F1D286800EB0411CC809E
:1029400021F8086B3868FEF7A6FB641CA4B2142CAF
:10295000F2D30020BDE8F0810248FBE7C800002068
:10296000E40000200007000210B504468068FFF76D
:10297000C1FB002801DA002010BDD4E9001201FBE0
:10298000002010BD10B503464068081A1968B0FB56
:10299000F1F4B0FBF1F201FB120068B9986801682C
:1029A000A14209D92146FFF7C6FB28B12146986804
:1029B000FFF791FB012010BD002010BD2DE9F04173
:1029C0001F460B4607F11F01042404EBD1018E18AA
:1029D000511E9D18761E6D1E8E438D4305FB0761AB
:1029E0000C31FFF7CFFB040008D004F10C00811973
:1029F0002560C4E901103946FFF7AEFB2046BDE86B
:102A0000F0814DF6DE6220F8022B00F8021B002157
:102A100000F8011C70471030704770B50E46FFF784
:102A2000FAFF00240546802E26D805EB0410006826
:102A3000B0421ED3FDF79AFB05EB04140646D4E919
:102A40000101814211D2E06878B1FFF78DFF0500E6
:102A500006D02168FFF7D5FF0546A068401CA0609E
:102A60003046FDF78BFB284670BD3046FDF786FBF0
:102A700002E0641C042CD8D3002070BD2DE9F04185
:102A80000C46FFF7C8FF074634F8040D0026A0F5F2
:102A90005E413546DE391ED194F8020007EB051180
:102AA0000968884214D8FDF761FB07EB05158046DD
:102AB0002146E868FFF766FF012803D1A8680126D0
:102AC000401EA8604046FDF759FB3046BDE8F08146
:102AD0006D1C042DE2D30020F8E700002DE9F05F23
:102AE0008346FFF798FF002407462646A1464FF08D
:102AF00010084FF4007A00BF08FA04F1BAFBF1F3B2
:102B000007EB041585E80A02E86808B1761C05E0C1
:102B100004225846091DFFF751FFE860641C042C8D
:102B2000EAD316B10020BDE8F09F0120FBE70000CA
:102B3000F8B540211A48FDF7B5FB1A4D1A48002791
:102B40004FF4E071AF610E460068FEF7B8FA04007A
:102B50001CD03146FDF7A6FB2C616C612781204615
:102B60001C340121218104602046491C89B21C3497
:102B70001029F7D308200B4A002300900C321021B3
:102B80001846FEF733FB20B10848F8BD0748001F80
:102B9000F8BD00F0EFF80028FAD00448401CF8BD5A
:102BA0007401002024000020E40000200B03000238
:102BB0002DE9FC4F0023591E019100910169C1606C
:102BC000017A5B4C01F00F065A4D54F826104FF075
:102BD000030B4FF01009AD694A461F46DC46BBEBBC
:102BE000517F68D141F0004144F8261021F07F4A1E
:102BF0000021A6465EF821C03CF07F442ED0B142B1
:102C00002CD0BBEB9C7F29D1D446544506D3B4FBD2
:102C1000FCF80AFB184CBCF1000F0AD0D44654450E
:102C20001CD2BCFBF4F804FB18ACBCF1000F0BD0B9
:102C300014E0B4FBFAF8DDF804C0E0450ED2B4FBB2
:102C4000FAF48946019409E0BAFBF4F8DDF800C013
:102C5000E04503D2BAFBF4F200920A46491C89B25D
:102C60001029C7D33349B9F1100F09691AD0C9EB3C
:102C7000C9042A4601EB840106E0D4680E89274482
:102C80001489B44203D01268002AF6D134E062B34A
:102C90001169CC1B0169B4FBF1F201FB1242891AE4
:102CA000C16029E0102A27D00023C2EBC202C36012
:102CB00001EB82031EE00222B2EB517F1CD141F0F6
:102CC000004144F82610294662460CE00E69076967
:102CD000BE4207D10E7A06F00F0654F82660B2EB1A
:102CE000967F03D009680029F0D105E021B10022C8
:102CF0000B46C26019680BE0294607E0CA68C46841
:102D0000A24205D8A21A0B46C26009680029F5D173
:102D1000016019B1CA68C468121BCA6023B1186087
:102D200002210171BDE8FC8F02498861F8E70000CB
:102D300074010020240000200EB508200C4C4FF038
:102D4000FF3500902B466A4601A9E068FEF7B0FA0D
:102D50000028F7D100980828F4D101980028F1D074
:102D6000FEF7F2FCDDE901108847FEF7EDFCE9E72C
:102D70002400002000B587B018216846FDF792FABC
:102D8000074800904FF48050039006A00490002064
:102D9000ADF8040069460648FEF7ECFA07B000BD3E
:102DA000392D00085377745F5461736B0000000085
:102DB000580000207CB5184D26E02068A861A06965
:102DC000009060690190002308226946E868FEF7D8
:102DD00080FA607920B1012810D0022814D111E0C6
:102DE000204600F01BF820894FF6E071884201D29E
:102DF000103001E000F00F00208105E02046FFF7D1
:102E0000D7FE01E001202071AC69002C02D0E068FF
:102E10000028D2D07CBD00002400002006494A6969
:102E20000260486100210171007A044A00F00F003D
:102E300042F8201070470000240000207401002098
:102E4000054810B5806928B1C168491EC16001D12B
:102E5000FFF7B0FF002010BD24000020F0B40246B0
:102E600011F01F034FEA511000D1401E916B1B4C13
:102E700001F0784101432079184400F01F0060F30D
:102E8000DF619163216801EBC00302F130015868F2
:102E9000984201D118461DE03038956B876B25F0BC
:102EA000784427F07846A6420AD8A41B05F0784556
:102EB0002C439463446BA4F130009C42EDD108E0B4
:102EC00027F0784325F078429A1A07F078431A439E
:102ED00082633030F0BCFEF7EFB8000080000020C5
:102EE00070B5094DC0EBC00000EB4000E96801EB94
:102EF00080046169206A8847002028802069BDE835
:102F00007040FEF74DBB00004000002072B6FEE7A7
:102F10002DE9F041304D5420304F2C69641C44435E
:102F200021463868FEF7CBF8DFF8B480E860E8B3F4
:102F30002146FDF7B7F905F1280000244060006044
:102F400008304060006008305FF0010640600060BB
:102F5000C4EBC400E96800EB400001EB80011E48AF
:102F60008E800C6130302831FEF7A6F8641C0F2CDF
:102F7000EED900266E622869E968C0EBC00000EB5C
:102F8000400001EB80011448203001600C610268B0
:102F90001121918000682021C180FFF701FB4FF4CF
:102FA00080710D463868FEF78AF800E012E00400F0
:102FB00010D02946FDF776F9074840300460868036
:102FC000002064602460401C08342028F9D30020CD
:102FD000BDE8F0814046FBE740000020E40000200F
:102FE0000002000310B54FF4AB710648FDF75AF923
:102FF00004490A2048700548034941600021816066
:1030000010BD0000B4010020C530000840000020C1
:103010002DE9F0412A4800270179491C01F01F01E0
:103020008180006800EBC1056C68AC4245D0303C43
:1030300004F13000A84206D0A06BA688400108D059
:10304000A06B401EA063002F37D0BDE8F041FEF713
:1030500053B904F13000FEF725F830070BD5A088EE
:1030600020F00800A08004F12800FEF71BF80020E3
:10307000A061E06113E0700503D5A08820F48060B2
:103080000CE0B00407D504F12800FEF70BF8A08887
:1030900020F4005002E0A08820F02000A080B007BB
:1030A00009D4A08840F00400A080E18804F1280041
:1030B000FFF75EFA01276C68B9E7BDE8F081000010
:1030C0008000002010B52A4C2068C0680068B0F16C
:1030D000CC3F08D027A0FEF7D3FC20680269416AE4
:1030E00026A0FEF7CDFC6068C2680168914203D952
:1030F00080681044884211D21EA0FEF7C1FC6068AF
:103100000269416A27A0FEF7BBFC1AA0FEF7B8FCD3
:103110006068C26801682CA0FEF7B2FC6068374C9A
:10312000018A227804EB42025180416A20782022F1
:1031300004EB40101630FDF79CF82178002004EBDA
:10314000411181F835002178491CC9B221700A2942
:1031500004D12070607840F080006070044820380E
:103160008068002802D0BDE81040004710BD000074
:10317000600000205B4552525D20000043555252D2
:10318000454E54207461736B2049443A2025733AAC
:10319000256420737461636B206F766572666C6F53
:1031A00077210A0048494748455354207461736B9E
:1031B0002049443A2025733A2564205350206572F3
:1031C000726F72210A000000484947484553542055
:1031D0007461736B20537461636B506F696E7465B7
:1031E000723A203078257820546F704F665374619E
:1031F000636B3A20307825780A000000B401002083
:103200002DE9F0418046104816460F46046804F147
:1032100028000546FFF790F9A088294620F0040011
:103220003843A0804046FDF747FF701C09D0A088B6
:10323000314640F04000A0802046BDE8F041FFF755
:103240000DBEBDE8F08100006000002070B50446AE
:1032500028300D460646FDF725FFA088A843A0802C
:10326000400606D5204600F05DF8A08820F040001A
:10327000A080A088810708D440F00400A080E188E5
:103280003046BDE87040FFF773B970BD084810B50F
:10329000D0E90221521C41F10001C0E9022100F0F5
:1032A0005BF8FFF7B5FEBDE81040FFF7C9BD0000B1
:1032B00090000020154810B5006818B14FF47A71DD
:1032C000884201D2124810BDB0FBF1F2114B124CF2
:1032D000B0FBF1F01A600022C4E900220122401E76
:1032E000B0F1807F02D30A48801C10BD4FF0E0216E
:1032F00048610A4BF02083F8140D002088610720F4
:10330000086107480260002010BD0000180000207E
:1033100000040002A0000020980000200FE000E060
:103320008800002030B40B4B826B1B68D10E03EB7E
:10333000C103416B994209D08B6822F0784223F097
:103340007844224403F078431A438A6030BC30301A
:10335000FDF7A8BE800000200B480A4902680B4810
:103360000B680068934204D00A60CB88421E1A445E
:103370008A808A8880B2824203D100200860FEF7EA
:10338000ABB97047A4000020600000209800002026
:103390000248002101600A21C1807047A40000207A
:1033A00070B5144605460E464FF0CA322046FCF76B
:1033B00072FF4FF0CC302060A0194FF0043140F87C
:1033C000441D4FF0053141604FF0063181604FF0F0
:1033D0000731C1604FF0083101614FF0093141619F
:1033E0004FF0103181614FF01131C1610021C0E90E
:1033F00008154FF0013181624900C1624FF003317D
:1034000001634FF012314163034981630349C16392
:103410004FF08071016470BD0D2F0008E12E00088F
:103420004FF4FA6464230C2203A10748FDF742FD20
:103430002046FEF77FF8F5E768656C6C6F776F7272
:103440006C640D0A00000000EC0000200000000089
:103450000000000001020304060708090000000044
:10346000010203048434000800000020EC00000086
:10347000C01A000870350008EC0000202406000087
:10348000D01A00080000000000000000000000004A
:103490000100000010000000000000000024F40003
:1034A000000000000000000000000000000000001C
:1034B000000000000000000000000000000000000C
:1034C00000000000000000000000000000000000FC
:1034D00000000000000000000000000000000000EC
:1034E00000000000000000000000000000000000DC
:1034F00000000000000000000000000000000000CC
:1035000000000000000000000000000000000000BB
:1035100000000000000000000000000000000000AB
:10352000000000000000000000000000000000009B
:10353000000000000000000000000000000000008B
:10354000000000000000000000000000000000007B
:10355000000000000000000000000000000000006B
:10356000000000000000000000000000000000005B
:04000005080000ED02
:00000001FF
